101 075000051 9001020082004090800A094101M&I MARSHALL & ILSLEY BELECTRONICPAYMTSNETWORK        
5200MA DUA          MASS UNEMPLOYMENT DDI046002284PPD MA UI TAX2004072004081001011500120000001
6212211721863308780523       0000000000   PREN11270247BPBHSR  BPSPPP          1011500129750209
799R03221172180197699      01140153                                            011500129750209
6212211721863312809810       0000000000   PREN11278903RHBBA S P'RXAX          1011500129750211
799R03221172180199495      01140153                                            011500129750211
82000000040044234436000000000000000000000000I046002284                         011500120000001
5200MA DUA          MASS UNEMPLOYMENT DDI046002284PPD MA UI TAX2004072004081001011500120000002
6212211721862269075          0000000000   PREN11277169BHRRAHA X PPAXRHBB      1011500129750214
799R03221172180198097      01150012                                            011500129750214
621221172186268774841        0000000000   PREN11274167RASABSAPR  HUBSAX       1011500129750216
799R03221172180207113      01150012                                            011500129750216
82000000040044234436000000000000000000000000I046002284                         011500120000002
5200MA DUA          MASS UNEMPLOYMENT DDI046002284PPD MA UI TAX2004072004081001011500120000003
621221172186011500120        0000000000   PREN11268967AAAPSH R DPBBPXPB       1011500129750225
799R03221172180204169      21107017                                            011500129750225
621221172186113929380        0000000000   PREN11271270RUBUP  BPSHR            1011500129750227
799R03221172180205567      21107017                                            011500129750227
621221172186131435874        0000000000   PREN11276816BXPHB X PPXRXBB         1011500129750229
799R03221172180208781      21107017                                            011500129750229
621221172186132021578        0000000000   PREN11274981APHHAA D AHBBPX         1011500129750231
799R03221172180196577      21107017                                            011500129750231
621221172186133453377        0000000000   PREN11269258HPPBA  BHDPB            1011500129750233
799R03221172180204225      21107017                                            011500129750233
621221172186140281345        0000000000   PREN11268369HXAHXAX B XARPSBPS      1011500129750235
799R03221172180203753      21107017                                            011500129750235
621221172186401279640        0000000000   PREN11271302BUXSX B XXBAPBBP XXBXX  1011500129750237
799R03221172180205564      21107017                                            011500129750237
6212211721861130458353       0000000000   PREN11279381DXS B DU                1011500129750239
799R03221172180210332      21107017                                            011500129750239
6212211721861131614365       0000000000   PREN11265785BXAX X PXSSHB           1011500129750241
799R03221172180202221      21107017                                            011500129750241
6212211721861132077851       0000000000   PREN11271916RXARAAS B BUBBPDXS      1011500129750243
799R03221172180199899      21107017                                            011500129750243
6212211721861139039145       0000000000   PREN11265909XBRBHA H BPXAHA         1011500129750245
799R03221172180197855      21107017                                            011500129750245
6212211721861213295213       0000000000   PREN11263860BPHHH  BPUAP            1011500129750247
799R03221172180196857      21107017                                            011500129750247
6212211721861323814490       0000000000   PREN11279330HXDXAX X XPXBPS         1011500129750249
799R03221172180210306      21107017                                            011500129750249
6212211721861328971354       0000000000   PREN11269862BPSXX X RAHS            1011500129750251
799R03221172180199043      21107017                                            011500129750251
6212211721861330915415       0000000000   PREN11278961BPRS S RPAPSAP          1011500129750253
799R03221172180197649      21107017                                            011500129750253
6212211721861334009942       0000000000   PREN11277323RXAPPX  X XXXP          1011500129750255
799R03221172180206227      21107017                                            011500129750255
6212211721861338944757       0000000000   PREN11265800PPAHXS H PBPDHA         1011500129750257
799R03221172180199007      21107017                                            011500129750257
6212211721861400842245       0000000000   PREN11264518PXAP  B BHDHA           1011500129750259
799R03221172180197929      21107017                                            011500129750259
82000000360398109924000000000000000000000000I046002284                         011500120000003
5200MA DUA          MASS UNEMPLOYMENT DDI046002284COR MA UI TAX2004092004071001011500120000004
6212211721861316271169       0000000000          20629BPBH X APDHAX           1011500129750710
798C02221172180018152      01140153211070175                                   011500129750710
82000000020022117218000000000000000000000000I046002284                         011500120000004
5200MA DUA          MASS UNEMPLOYMENT DDI046002284COR MA UI TAX2004072004091001011500120000005
6212211721861316143039       0000000000          72629ARPPXB B PXPXRPS        1011500129750713
798C02221172180042481      01140153211070175                                   011500129750713
6212211721861332677956       0000000000         108792BXPAA P BHXRA           1011500129750715
798C02221172180077102      01140153211070175                                   011500129750715
82000000040044234436000000000000000000000000I046002284                         011500120000005
5200MA DUA          MASS UNEMPLOYMENT DDI046002284COR MA UI TAX2004092004071001011500120000006
6212211721861401856346       0000000000           3550BXBPS X HAPPRB          1011500129750729
798C02221172180003208      01150012211070175                                   011500129750729
62122117218696486766         0000000000           4692BRXPA  SXBXXPP          1011500129750731
798C05221172180004349      0115001232                                          011500129750731
82000000040044234436000000000000000000000000I046002284                         011500120000006
5200MA DUA          MASS UNEMPLOYMENT DDI046002284COR MA UI TAX2004092004071001011500120000007
6212211721861338711404       0000000000           7842XHDHB X HBPDHA PPP      1011500129750734
798C02221172180007671      01150012211070175                                   011500129750734
6212211721861329879446       0000000000          13908HBDPAX  X XPXS          1011500129750736
798C02221172180010935      01150012211070175                                   011500129750736
82000000040044234436000000000000000000000000I046002284                         011500120000007
5200MA DUA          MASS UNEMPLOYMENT DDI046002284COR MA UI TAX2004092004071001011500120000008
6212211721861336425072       0000000000          12379PARHU S XH SPSX S XH S  1011500129750739
798C02221172180013234      01150012211070175                                   011500129750739
6212211721861402562893       0000000000          20652HXDXAX B XPBAHRXSP      1011500129750741
798C02221172180018175      01150012211070175                                   011500129750741
82000000040044234436000000000000000000000000I046002284                         011500120000008
5200MA DUA          MASS UNEMPLOYMENT DDI046002284COR MA UI TAX2004072004091001011500120000009
6212211721861314538192       0000000000          60272XXDPX R PDHS            1011500129750747
798C02221172180019115      01150012211070175                                   011500129750747
6212211721861333664254       0000000000          62477BPBH B APBXAPP          1011500129750749
798C02221172180031808      01150012211070175                                   011500129750749
82000000040044234436000000000000000000000000I046002284                         011500120000009
5200MA DUA          MASS UNEMPLOYMENT DDI046002284COR MA UI TAX2004072004091001011500120000010
6212211721863309016619       0000000000          74881HBXPSH X PXAAHS-HHBB    1011500129750752
798C02221172180045674      01150012011401533                                   011500129750752
6212211721861322099348       0000000000          80061SXUB H RHHRH            1011500129750754
798C02221172180048532      01150012211070175                                   011500129750754
82000000040044234436000000000000000000000000I046002284                         011500120000010
5200MA DUA          MASS UNEMPLOYMENT DDI046002284COR MA UI TAX2004072004091001011500120000011
6212211721861328291755       0000000000          96006PXAPBBX B PXAPSP        1011500129750757
798C02221172180065846      01150012211070175                                   011500129750757
6212211721861315988833       0000000000         102828APSXBX B ARPPXB PPP     1011500129750759
798C02221172180072750      01150012211070175                                   011500129750759
82000000040044234436000000000000000000000000I046002284                         011500120000011
5200MA DUA          MASS UNEMPLOYMENT DDI046002284COR MA UI TAX2004072004091001011500120000012
62122117218696420943         0000000000         115309BPXS P PUBAXRX          1011500129750762
798C05221172180085404      0115001232                                          011500129750762
6212211721861104118111       0000000000         128543AUAXP  XUP              1011500129750764
798C02221172180099319      01150012211070175                                   011500129750764
82000000040044234436000000000000000000000000I046002284                         011500120000012
5200MA DUA          MASS UNEMPLOYMENT DDI046002284COR MA UI TAX2004072004091001011500120000013
62122117218695764398         0000000000         139341XRAPBAPSRHA D PXXBPP    1011500129750767
798C05221172180106119      0115001232                                          011500129750767
6212211721863314058448       0000000000         141418XPSSPA X HAXBBP         1011500129750769
798C02221172180106670      01150012011401533                                   011500129750769
82000000040044234436000000000000000000000000I046002284                         011500120000013
5200MA DUA          MASS UNEMPLOYMENT DDI046002284COR MA UI TAX2004072004091001011500120000014
6212211721861322290722       0000000000         147443BXBHR  BXBRP            1011500129750772
798C02221172180117538      01150012211070175                                   011500129750772
6212211721861321717269       0000000000         154015AXXRXHB B XRPXDXAPSP    1011500129750774
798C02221172180126911      01150012211070175                                   011500129750774
82000000040044234436000000000000000000000000I046002284                         011500120000014
5200MA DUA          MASS UNEMPLOYMENT DDI046002284COR MA UI TAX2004072004091001011500120000015
6212211721861401334315       0000000000         159349PBPXSX B PHXPSX         1011500129750777
798C02221172180131144      01150012211070175                                   011500129750777
6212211721861332851441       0000000000         167981XPAHA  X BRXUHRSHBBA    1011500129750779
798C02221172180136203      01150012211070175                                   011500129750779
82000000040044234436000000000000000000000000I046002284                         011500120000015
5200MA DUA          MASS UNEMPLOYMENT DDI046002284COR MA UI TAX2004072004091001011500120000016
6212211721861324658336       0000000000         168708BUBPX X HUPSHA          1011500129750782
798C02221172180136419      01150012211070175                                   011500129750782
6212211721861339834313       0000000000         174124BPHP A SHUAHS           1011500129750784
798C02221172180143113      01150012211070175                                   011500129750784
82000000040044234436000000000000000000000000I046002284                         011500120000016
5200MA DUA          MASS UNEMPLOYMENT DDI046002284COR MA UI TAX2004072004091001011500120000017
6212211721861324000896       0000000000         176680BUBAPS P HBPXRHA        1011500129750787
798C02221172180146435      01150012211070175                                   011500129750787
6212211721863315386899       0000000000         177670HPPX S HAXBBP           1011500129750789
798C02221172180146660      01150012011401533                                   011500129750789
82000000040044234436000000000000000000000000I046002284                         011500120000017
5200MA DUA          MASS UNEMPLOYMENT DDI046002284COR MA UI TAX2004072004091001011500120000018
6212211721861321122664       0000000000         192910SRPBPS H RXURPXS        1011500129750792
798C02221172180159683      01150012211070175                                   011500129750792
6212211721861334891483       0000000000         192092AHSH  H APUBBHBBH BA    1011500129750794
798C02221172180162186      01150012211070175                                   011500129750794
82000000040044234436000000000000000000000000I046002284                         011500120000018
5200MA DUA          MASS UNEMPLOYMENT DDI046002284COR MA UI TAX2004072004091001011500120000019
6212211721861336207903       0000000000         195117BXSBPS  XRPPX           1011500129750797
798C02221172180162914      01150012211070175                                   011500129750797
6212211721861328066409       0000000000         197926HHARXSA H RXADHA        1011500129750799
798C02221172180165126      01150012211070175                                   011500129750799
82000000040044234436000000000000000000000000I046002284                         011500120000019
5200MA DUA          MASS UNEMPLOYMENT DDI046002284COR MA UI TAX2004072004091001011500120000020
6212211721861325359936       0000000000         205994BUPB  H PAAPS HAXPXBP   1011500129750802
798C02221172180174983      01150012211070175                                   011500129750802
62122117218696485344         0000000000         211163HXPBA  DPBBXA DXAHXB    1011500129750804
798C05221172180177845      0115001232                                          011500129750804
82000000040044234436000000000000000000000000I046002284                         011500120000020
5200MA DUA          MASS UNEMPLOYMENT DDI046002284COR MA UI TAX2004072004091001011500120000021
62122117218696485344         0000000000         211164HXPBA  DPBBXA DXAHXB    1011500129750807
798C05221172180177846      0115001232                                          011500129750807
6212211721860096471351       0000000000         223028XPAHPS X RXAXPS         1011500129750809
798C05221172180195345      0115001232                                          011500129750809
82000000040044234436000000000000000000000000I046002284                         011500120000021
5200MA DUA          MASS UNEMPLOYMENT DDI046002284COR MA UI TAX2004072004091001011500120000022
6212211721861328688426       0000000000         223031BAHSRHS  P BHPPHB       1011500129750812
798C02221172180195348      01150012211070175                                   011500129750812
6212211721861328688426       0000000000         223032BAHSRHS  P BHPPHB       1011500129750814
798C02221172180195349      01150012211070175                                   011500129750814
82000000040044234436000000000000000000000000I046002284                         011500120000022
5200MA DUA          MASS UNEMPLOYMENT DDI046002284COR MA UI TAX2004072004091001011500120000023
6212211721861323947644       0000000000         223038PXAPX   PHBHXA          1011500129750817
798C02221172180195355      01150012211070175                                   011500129750817
6212211721861139263517       0000000000         223042BPBH B XPAHXB           1011500129750819
798C02221172180195359      01150012211070175                                   011500129750819
82000000040044234436000000000000000000000000I046002284                         011500120000023
5200MA DUA          MASS UNEMPLOYMENT DDI046002284COR MA UI TAX2004092004071001011500120000024
6212211721861138357739       0000000000          20645RHBPD X SUHBBP          1011500129750856
798C02221172180018168      02131310211070175                                   011500129750856
82000000020022117218000000000000000000000000I046002284                         011500120000024
5200MA DUA          MASS UNEMPLOYMENT DDI046002284COR MA UI TAX2004072004091001011500120000025
6212211721861102254441       0000000000         121967BPRS B HXDPAX           1011500129750859
798C02221172180089937      02131310211070175                                   011500129750859
62122117218622689435         0000000000         223021XSXAHD P RUXRPSB-SPBB   1011500129750861
798C02221172180195338      02131310011500120                                   011500129750861
82000000040044234436000000000000000000000000I046002284                         011500120000025
5200MA DUA          MASS UNEMPLOYMENT DDI046002284COR MA UI TAX2004072004091001011500120000026
6212211721861401032661       0000000000         159364BXHAPS  SXRPX           1011500129750867
798C02221172180131159      03110114211070175                                   011500129750867
6212211721861321514333       0000000000         210153QUXSH  SHUAHS           1011500129750869
798C02221172180177603      03110114211070175                                   011500129750869
82000000040044234436000000000000000000000000I046002284                         011500120000026
5200MA DUA          MASS UNEMPLOYMENT DDI046002284COR MA UI TAX2004092004071001011500120000027
6212211721861329896782       0000000000          20616AHAHBX  HBXPHXA PXAAPS  1011500129750872
798C02221172180018139      03607615211070175                                   011500129750872
82000000020022117218000000000000000000000000I046002284                         011500120000027
5200MA DUA          MASS UNEMPLOYMENT DDI046002284COR MA UI TAX2004092004071001011500120000028
6212211721861152565212       0000000000            391XXAB H PXBXPBP BA       1011500129750884
798C05221172180000220      2110701732                                          011500129750884
6212211721861188322960       0000000000           6651SHBBPS  PRPSRDP         1011500129750886
798C05221172180006480      2110701732                                          011500129750886
82000000040044234436000000000000000000000000I046002284                         011500120000028
5200MA DUA          MASS UNEMPLOYMENT DDI046002284COR MA UI TAX2004092004071001011500120000029
6212211721861188322960       0000000000           6652SHBBPS  PRPSRDP         1011500129750889
798C05221172180006481      2110701732                                          011500129750889
6212211721863313549146       0000000000          14057AXABHA B XAPBHA         1011500129750891
798C02221172180013635      21107017011401533                                   011500129750891
82000000040044234436000000000000000000000000I046002284                         011500120000029
5200MA DUA          MASS UNEMPLOYMENT DDI046002284COR MA UI TAX2004092004071001011500120000030
62122117218623181850         0000000000          18845XBRBHA H DHSAUAX        1011500129750894
798C02221172180016343      21107017011500120                                   011500129750894
6212211721861179528726       0000000000          20299XXAXAPSX  AHPDHPAX      1011500129750896
798C05221172180018074      2110701732                                          011500129750896
82000000040044234436000000000000000000000000I046002284                         011500120000030
5200MA DUA          MASS UNEMPLOYMENT DDI046002284COR MA UI TAX2004092004071001011500120000031
6212211721861187315251       0000000000          20305RPP  SRXP               1011500129750899
798C05221172180018080      2110701732                                          011500129750899
6212211721861172846137       0000000000          20611DPSXHSA B PXAPSP        1011500129750901
798C05221172180018134      2110701732                                          011500129750901
82000000040044234436000000000000000000000000I046002284                         011500120000031
5200MA DUA          MASS UNEMPLOYMENT DDI046002284COR MA UI TAX2004092004071001011500120000032
6212211721861184959271       0000000000          20644RHBDPS A PAAHS          1011500129750904
798C05221172180018167      2110701732                                          011500129750904
82000000020022117218000000000000000000000000I046002284                         011500120000032
5200MA DUA          MASS UNEMPLOYMENT DDI046002284COR MA UI TAX2004072004091001011500120000033
6212211721861150316347       0000000000          55582BHPXA A UBBPX           1011500129750955
798C05221172180011309      2110701732                                          011500129750955
6212211721861150316347       0000000000          55583BHPXA A UBBPX           1011500129750957
798C05221172180011310      2110701732                                          011500129750957
82000000040044234436000000000000000000000000I046002284                         011500120000033
5200MA DUA          MASS UNEMPLOYMENT DDI046002284COR MA UI TAX2004072004091001011500120000034
62122117218621493669         0000000000          60537BPBH X PAAPS            1011500129750960
798C02221172180017904      21107017011500120                                   011500129750960
6212211721861184679295       0000000000          34488XSHHB X APSXPS          1011500129750962
798C05221172180023719      2110701732                                          011500129750962
82000000040044234436000000000000000000000000I046002284                         011500120000034
5200MA DUA          MASS UNEMPLOYMENT DDI046002284COR MA UI TAX2004072004091001011500120000035
62122117218623380012         0000000000          35050APXSHA A SPBHB          1011500129750965
798C02221172180024281      21107017011500120                                   011500129750965
6212211721861184381636       0000000000          36609DPBBPXP B HAAPXRHAAP    1011500129750967
798C05221172180025841      2110701732                                          011500129750967
82000000040044234436000000000000000000000000I046002284                         011500120000035
5200MA DUA          MASS UNEMPLOYMENT DDI046002284COR MA UI TAX2004072004091001011500120000036
6212211721861184578480       0000000000          74016RHBPSH  PAAHHX          1011500129750970
798C05221172180042836      2110701732                                          011500129750970
6212211721861184578480       0000000000          74017RHBPSH  PAAHHX          1011500129750972
798C05221172180042837      2110701732                                          011500129750972
82000000040044234436000000000000000000000000I046002284                         011500120000036
5200MA DUA          MASS UNEMPLOYMENT DDI046002284COR MA UI TAX2004072004091001011500120000037
62122117218614635135         0000000000          79093XXSPHBB  PXAPSX         1011500129750975
798C02221172180048338      21107017011500120                                   011500129750975
6212211721863312832219       0000000000          95232BPBH X BXSAXSX BXSXRHS  1011500129750977
798C02221172180064308      21107017011401533                                   011500129750977
82000000040044234436000000000000000000000000I046002284                         011500120000037
5200MA DUA          MASS UNEMPLOYMENT DDI046002284COR MA UI TAX2004072004091001011500120000038
62122117218613538209         0000000000          96269XSXA  SRPARPBXAXAR      1011500129750980
798C02221172180064579      21107017011500120                                   011500129750980
6212211721861174256329       0000000000         103945HAPXS H HAPABHB         1011500129750982
798C05221172180069355      2110701732                                          011500129750982
82000000040044234436000000000000000000000000I046002284                         011500120000038
5200MA DUA          MASS UNEMPLOYMENT DDI046002284COR MA UI TAX2004072004091001011500120000039
6212211721863314811057       0000000000         105144RXABX P RBASS           1011500129750985
798C02221172180073453      21107017011401533                                   011500129750985
62122117218622418563         0000000000         105059XPSP X RXSAXBPX         1011500129750987
798C02221172180077367      21107017011500120                                   011500129750987
82000000040044234436000000000000000000000000I046002284                         011500120000039
5200MA DUA          MASS UNEMPLOYMENT DDI046002284COR MA UI TAX2004072004091001011500120000040
6212211721863310430997       0000000000         116381BHSSPRHA H XHBAHRXSP    1011500129750990
798C02221172180086985      21107017011401533                                   011500129750990
6212211721861189143598       0000000000         118492BHRRAHA B RPSHB         1011500129750992
798C05221172180088757      2110701732                                          011500129750992
82000000040044234436000000000000000000000000I046002284                         011500120000040
5200MA DUA          MASS UNEMPLOYMENT DDI046002284COR MA UI TAX2004072004091001011500120000041
6212211721863313772791       0000000000         140453BXPXSARX X DRPAH        1011500129750995
798C02221172180107741      21107017011401533                                   011500129750995
6212211721863312399221       0000000000         139623BXUAHS H BXDHAA         1011500129750997
798C02221172180110140      21107017011401533                                   011500129750997
82000000040044234436000000000000000000000000I046002284                         011500120000041
5200MA DUA          MASS UNEMPLOYMENT DDI046002284COR MA UI TAX2004072004091001011500120000042
6212211721863312229687       0000000000         143332AABHA  BXXRXSXH         1011500129751000
798C02221172180111301      21107017011401533                                   011500129751000
6212211721860026718693       0000000000         149438BUPB X PPAXBHB APDHAX   1011500129751002
798C02221172180118006      21107017011500120                                   011500129751002
82000000040044234436000000000000000000000000I046002284                         011500120000042
5200MA DUA          MASS UNEMPLOYMENT DDI046002284COR MA UI TAX2004072004091001011500120000043
62122117218625388037         0000000000         150804BUBPX P DXBXPSXHBPB     1011500129751005
798C02221172180118353      21107017011500120                                   011500129751005
6212211721861188430550       0000000000         148644RHSXXBB S BXHDPPUA      1011500129751007
798C05221172180120439      2110701732                                          011500129751007
82000000040044234436000000000000000000000000I046002284                         011500120000043
5200MA DUA          MASS UNEMPLOYMENT DDI046002284COR MA UI TAX2004072004091001011500120000044
62122117218616800079         0000000000         159205HBHHAA X PPSAPA         1011500129751010
798C02221172180128533      21107017011500120                                   011500129751010
6212211721863314345064       0000000000         158308BP  XXP                 1011500129751012
798C02221172180130869      21107017011401533                                   011500129751012
82000000040044234436000000000000000000000000I046002284                         011500120000044
5200MA DUA          MASS UNEMPLOYMENT DDI046002284COR MA UI TAX2004072004091001011500120000045
62122117218619395531         0000000000         163116PHHRXSS X HPUBX         1011500129751015
798C02221172180132104      21107017011500120                                   011500129751015
6212211721862231894593       0000000000         172087PPXRXHB  AAXSXRPXX      1011500129751017
798C02221172180142357      21107017211170114                                   011500129751017
82000000040044234436000000000000000000000000I046002284                         011500120000045
5200MA DUA          MASS UNEMPLOYMENT DDI046002284COR MA UI TAX2004072004091001011500120000046
62122117218692918068         0000000000         182672RXABX P SPPHSAXB        1011500129751020
798C02221172180150469      21107017011500120                                   011500129751020
62122117218692918068         0000000000         182672RXABX P SPPHSAXB        1011500129751022
798C05221172180150469      2110701732                                          011500129751022
82000000040044234436000000000000000000000000I046002284                         011500120000046
5200MA DUA          MASS UNEMPLOYMENT DDI046002284COR MA UI TAX2004072004091001011500120000047
62122117218623003308         0000000000         188963HAHHPAA S PXXPBXXX      1011500129751025
798C02221172180154890      21107017011500120                                   011500129751025
6212211721863313258486       0000000000         188047XXXP B RPASH            1011500129751027
798C02221172180157290      21107017011401533                                   011500129751027
82000000040044234436000000000000000000000000I046002284                         011500120000047
5200MA DUA          MASS UNEMPLOYMENT DDI046002284COR MA UI TAX2004072004091001011500120000048
6212211721861183810320       0000000000         193386RPPHHABA X RHRX         1011500129751030
798C05221172180161181      2110701732                                          011500129751030
6212211721861183810320       0000000000         194740SXAXP  RHRX             1011500129751032
798C05221172180161513      2110701732                                          011500129751032
82000000040044234436000000000000000000000000I046002284                         011500120000048
5200MA DUA          MASS UNEMPLOYMENT DDI046002284COR MA UI TAX2004072004091001011500120000049
6212211721861188111188       0000000000         198951SPXPBH P BXSXPB         1011500129751035
798C05221172180165383      2110701732                                          011500129751035
6212211721861187923081       0000000000         224299RHAAA H RPBAHA          1011500129751037
798C05221172180194407      2110701732                                          011500129751037
82000000040044234436000000000000000000000000I046002284                         011500120000049
5200MA DUA          MASS UNEMPLOYMENT DDI046002284COR MA UI TAX2004072004091001011500120000050
6212211721861147258522       0000000000         223029BAHDH S XXAPS           1011500129751040
798C05221172180195346      2110701732                                          011500129751040
6212211721861163038958       0000000000         223039BXPHB  R ARXPHB         1011500129751042
798C05221172180195356      2110701732                                          011500129751042
82000000040044234436000000000000000000000000I046002284                         011500120000050
5200MA DUA          MASS UNEMPLOYMENT DDI046002284COR MA UI TAX2004072004091001011500120000051
6212211721861313048949       0000000000          73083PPXRXHB R DXAAHS        1011500129751263
798C02221172180043965      21117011211070175                                   011500129751263
82000000020022117218000000000000000000000000I046002284                         011500120000051
5200MA DUA          MASS UNEMPLOYMENT DDI046002284COR MA UI TAX2004072004091001011500120000052
6212211721861334866985       0000000000          68688XAPB X APDHAX           1011500129751272
798C02221172180038967      23137306211070175                                   011500129751272
82000000020022117218000000000000000000000000I046002284                         011500120000052
5200MA DUA          MASS UNEMPLOYMENT DDI046002284COR MA UI TAX2004072004091001011500120000053
6312211721863314246775       0000000000          68385XHSSPB B XBPUX          1011500129750718
798C05221172180041072      0114015322                                          011500129750718
6312211721863312949728       0000000000         137384PHHRXS X PPBHDBRA       1011500129750720
798C05221172180106965      0114015322                                          011500129750720
82000000040044234436000000000000000000000000I046002284                         011500120000053
5200MA DUA          MASS UNEMPLOYMENT DDI046002284COR MA UI TAX2004072004091001011500120000054
6312211721863313928775       0000000000         150120XBPDPX B HHHAHS         1011500129750723
798C05221172180118179      0114015322                                          011500129750723
82000000020022117218000000000000000000000000I046002284                         011500120000054
5200MA DUA          MASS UNEMPLOYMENT DDI046002284COR MA UI TAX2004092004071001011500120000055
63122117218616424522         0000000000          20296XRAPBAPSRHA B XRXDHB    1011500129750744
798C05221172180018071      0115001222                                          011500129750744
82000000020022117218000000000000000000000000I046002284                         011500120000055
5200MA DUA          MASS UNEMPLOYMENT DDI046002284COR MA UI TAX2004072004091001011500120000056
63122117218628193768         0000000000          68735SHBBPS  RHASXSXHS       1011500129750822
798C05221172180039960      0115001222                                          011500129750822
63122117218623270640         0000000000         117386PXASXAX B QUHSXXX BXSA  1011500129750824
798C05221172180087223      0115001222                                          011500129750824
82000000040044234436000000000000000000000000I046002284                         011500120000056
5200MA DUA          MASS UNEMPLOYMENT DDI046002284COR MA UI TAX2004072004091001011500120000057
63122117218628565479         0000000000         127528BPBBHA  HAPAP XH SPPHS  1011500129750827
798C05221172180099072      0115001222                                          011500129750827
63122117218620174802         0000000000         176394XSAPB X XUXBPB          1011500129750829
798C05221172180146404      0115001222                                          011500129750829
82000000040044234436000000000000000000000000I046002284                         011500120000057
5200MA DUA          MASS UNEMPLOYMENT DDI046002284COR MA UI TAX2004072004091001011500120000058
63122117218628489594         0000000000         180643BXAX X RXSUBXRXR        1011500129750832
798C05221172180149971      0115001222                                          011500129750832
63122117218625883291         0000000000         223033BRXSSPS H PXAAPSHXU     1011500129750834
798C05221172180195350      0115001222                                          011500129750834
82000000040044234436000000000000000000000000I046002284                         011500120000058
5200MA DUA          MASS UNEMPLOYMENT DDI046002284COR MA UI TAX2004092004071001011500120000059
6312211721861330415016       0000000000           1174PXAR A BSPSPBX          1011500129750907
798C05221172180001604      2110701722                                          011500129750907
6312211721861310613750       0000000000           5085HXPPSX  BPBXB           1011500129750909
798C05221172180005514      2110701722                                          011500129750909
82000000040044234436000000000000000000000000I046002284                         011500120000059
5200MA DUA          MASS UNEMPLOYMENT DDI046002284COR MA UI TAX2004092004071001011500120000060
6312211721861335194743       0000000000           6397SPBRHBBH X HXPHBH       1011500129750912
798C05221172180006822      2110701722                                          011500129750912
6312211721861133596859       0000000000           9410RPPHHABA X HAHSPHA      1011500129750914
798C05221172180009240      2110701722                                          011500129750914
82000000040044234436000000000000000000000000I046002284                         011500120000060
5200MA DUA          MASS UNEMPLOYMENT DDI046002284COR MA UI TAX2004092004071001011500120000061
6312211721861320034842       0000000000           9972XXABPB  XPXS            1011500129750917
798C05221172180009631      2110701722                                          011500129750917
6312211721861313547295       0000000000          13156AHAHBX B PPAAPB         1011500129750919
798C05221172180014690      2110701722                                          011500129750919
82000000040044234436000000000000000000000000I046002284                         011500120000061
5200MA DUA          MASS UNEMPLOYMENT DDI046002284COR MA UI TAX2004092004071001011500120000062
6312211721861401906688       0000000000          16507HAHAXPS B BPBDPX        1011500129750922
798C05221172180015759      2110701722                                          011500129750922
6312211721861339399226       0000000000          18531RHAABA  APBPHA XXBPPPA  1011500129750924
798C05221172180016280      2110701722                                          011500129750924
82000000040044234436000000000000000000000000I046002284                         011500120000062
5200MA DUA          MASS UNEMPLOYMENT DDI046002284COR MA UI TAX2004092004071001011500120000063
6312211721861306426259       0000000000          19939PXAA X BXSRH            1011500129750927
798C05221172180017965      2110701722                                          011500129750927
6312211721861331363559       0000000000          20301XSHHBPSX P XXAXXAHBBP   1011500129750929
798C05221172180018076      2110701722                                          011500129750929
82000000040044234436000000000000000000000000I046002284                         011500120000063
5200MA DUA          MASS UNEMPLOYMENT DDI046002284COR MA UI TAX2004092004071001011500120000064
6312211721861331881347       0000000000          20309DXDPHA P HAPBXPH PXDDH  1011500129750932
798C05221172180018084      2110701722                                          011500129750932
6312211721861312511025       0000000000          20578RAXSXX  P XUAAXS        1011500129750934
798C05221172180018101      2110701722                                          011500129750934
82000000040044234436000000000000000000000000I046002284                         011500120000064
5200MA DUA          MASS UNEMPLOYMENT DDI046002284COR MA UI TAX2004092004071001011500120000065
6312211721861336278665       0000000000          20587XHSPB  RXBBDXDRPU       1011500129750937
798C05221172180018110      2110701722                                          011500129750937
6312211721861328215773       0000000000          20588PXAPX  BXSXRHB          1011500129750939
798C05221172180018111      2110701722                                          011500129750939
82000000040044234436000000000000000000000000I046002284                         011500120000065
5200MA DUA          MASS UNEMPLOYMENT DDI046002284COR MA UI TAX2004092004071001011500120000066
6312211721861308538674       0000000000          20590HDXSHHBPB  ABPPPSBPRXB  1011500129750942
798C05221172180018113      2110701722                                          011500129750942
6312211721861309283351       0000000000          20601BUS H HUHAAX            1011500129750944
798C05221172180018124      2110701722                                          011500129750944
82000000040044234436000000000000000000000000I046002284                         011500120000066
5200MA DUA          MASS UNEMPLOYMENT DDI046002284COR MA UI TAX2004092004071001011500120000067
6312211721861328416795       0000000000          20635PPXRXHB A SXBPHA        1011500129750947
798C05221172180018158      2110701722                                          011500129750947
6312211721861335173274       0000000000          20646APBPS  BXRXSHPAPXS      1011500129750949
798C05221172180018169      2110701722                                          011500129750949
82000000040044234436000000000000000000000000I046002284                         011500120000067
5200MA DUA          MASS UNEMPLOYMENT DDI046002284COR MA UI TAX2004092004071001011500120000068
6312211721861400817819       0000000000          20653BXSAX X XXBAPBBP        1011500129750952
798C05221172180018176      2110701722                                          011500129750952
82000000020022117218000000000000000000000000I046002284                         011500120000068
5200MA DUA          MASS UNEMPLOYMENT DDI046002284COR MA UI TAX2004072004091001011500120000069
6312211721861313740885       0000000000          41926BAHSRHS H APBB          1011500129751045
798C05221172180003965      2110701722                                          011500129751045
6312211721861331993412       0000000000          44258XHAHR D RHSAS           1011500129751047
798C05221172180004578      2110701722                                          011500129751047
82000000040044234436000000000000000000000000I046002284                         011500120000069
5200MA DUA          MASS UNEMPLOYMENT DDI046002284COR MA UI TAX2004072004091001011500120000070
6312211721861313555441       0000000000          49438BXBPS  HXAPBAX          1011500129751050
798C05221172180006075      2110701722                                          011500129751050
6312211721861338884457       0000000000          46692XBRBHA  HBBPB           1011500129751052
798C05221172180007995      2110701722                                          011500129751052
82000000040044234436000000000000000000000000I046002284                         011500120000070
5200MA DUA          MASS UNEMPLOYMENT DDI046002284COR MA UI TAX2004072004091001011500120000071
6312211721861322538597       0000000000          51429DPBBPXP B XHPHAB        1011500129751055
798C05221172180011587      2110701722                                          011500129751055
6312211721861323792101       0000000000          52411BPAHSSP B AUBXPSP BA    1011500129751057
798C05221172180011831      2110701722                                          011500129751057
82000000040044234436000000000000000000000000I046002284                         011500120000071
5200MA DUA          MASS UNEMPLOYMENT DDI046002284COR MA UI TAX2004072004091001011500120000072
6312211721861400026862       0000000000          52715BXXBAS P HUAAB          1011500129751060
798C05221172180011888      2110701722                                          011500129751060
6312211721861335236039       0000000000          51922BXXBAS P APHHAABPS      1011500129751062
798C05221172180014213      2110701722                                          011500129751062
82000000040044234436000000000000000000000000I046002284                         011500120000072
5200MA DUA          MASS UNEMPLOYMENT DDI046002284COR MA UI TAX2004072004091001011500120000073
6312211721861330056466       0000000000          52567RAXSXPB S RHPUHR        1011500129751065
798C05221172180014366      2110701722                                          011500129751065
6312211721861305456340       0000000000          60538XPXPXSA A RPSBHXX       1011500129751067
798C05221172180017905      2110701722                                          011500129751067
82000000040044234436000000000000000000000000I046002284                         011500120000073
5200MA DUA          MASS UNEMPLOYMENT DDI046002284COR MA UI TAX2004072004091001011500120000074
6312211721861329771262       0000000000          36984BXPAA  XUBBHAPS         1011500129751070
798C05221172180027443      2110701722                                          011500129751070
6312211721861401446113       0000000000          65860BXDPHA H RPHUHAPX       1011500129751072
798C05221172180031325      2110701722                                          011500129751072
82000000040044234436000000000000000000000000I046002284                         011500120000074
5200MA DUA          MASS UNEMPLOYMENT DDI046002284COR MA UI TAX2004072004091001011500120000075
6312211721861308995765       0000000000          67492BPBHSRP  XHBRPUAXB      1011500129751075
798C05221172180035965      2110701722                                          011500129751075
6312211721861139498468       0000000000          67769HHAAA  APHXS            1011500129751077
798C05221172180035984      2110701722                                          011500129751077
82000000040044234436000000000000000000000000I046002284                         011500120000075
5200MA DUA          MASS UNEMPLOYMENT DDI046002284COR MA UI TAX2004072004091001011500120000076
6312211721861106700691       0000000000          68337PPXRXHB H XPUHRBXS      1011500129751080
798C05221172180038873      2110701722                                          011500129751080
6312211721861329109195       0000000000          72833RPBBXAA X XXPSHHBB      1011500129751082
798C05221172180041135      2110701722                                          011500129751082
82000000040044234436000000000000000000000000I046002284                         011500120000076
5200MA DUA          MASS UNEMPLOYMENT DDI046002284COR MA UI TAX2004072004091001011500120000077
6312211721861324551132       0000000000          74711SHHHA  HPUXAHXU         1011500129751085
798C05221172180043016      2110701722                                          011500129751085
6312211721861336216635       0000000000          75912XBRBHA  XBDHB           1011500129751087
798C05221172180045933      2110701722                                          011500129751087
82000000040044234436000000000000000000000000I046002284                         011500120000077
5200MA DUA          MASS UNEMPLOYMENT DDI046002284COR MA UI TAX2004072004091001011500120000078
6312211721861336216635       0000000000          75913XBRBHA  XBDHB           1011500129751090
798C05221172180045934      2110701722                                          011500129751090
6312211721861110330895       0000000000          78269BUBXS P RXBB            1011500129751092
798C05221172180046740      2110701722                                          011500129751092
82000000040044234436000000000000000000000000I046002284                         011500120000078
5200MA DUA          MASS UNEMPLOYMENT DDI046002284COR MA UI TAX2004072004091001011500120000079
6312211721861326082881       0000000000          81311BHXS  PPBBHA            1011500129751095
798C05221172180051245      2110701722                                          011500129751095
6312211721861311436429       0000000000          88143PHHXS  PXHPSS           1011500129751097
798C05221172180053120      2110701722                                          011500129751097
82000000040044234436000000000000000000000000I046002284                         011500120000079
5200MA DUA          MASS UNEMPLOYMENT DDI046002284COR MA UI TAX2004072004091001011500120000080
6312211721861331801998       0000000000          86278RXAHS X BUSHXAP         1011500129751100
798C05221172180055352      2110701722                                          011500129751100
6312211721861139299716       0000000000          89050HAXRXP X PPDPAS         1011500129751102
798C05221172180057527      2110701722                                          011500129751102
82000000040044234436000000000000000000000000I046002284                         011500120000080
5200MA DUA          MASS UNEMPLOYMENT DDI046002284COR MA UI TAX2004072004091001011500120000081
6312211721861303931351       0000000000          92989HBXPS X RPSRPSB PPP     1011500129751105
798C05221172180061210      2110701722                                          011500129751105
6312211721861305277276       0000000000          98348APHHAA B BXHXAPSP       1011500129751107
798C05221172180066400      2110701722                                          011500129751107
82000000040044234436000000000000000000000000I046002284                         011500120000081
5200MA DUA          MASS UNEMPLOYMENT DDI046002284COR MA UI TAX2004072004091001011500120000082
6312211721861329482430       0000000000         101188SXUBP X XXHAXB          1011500129751110
798C05221172180068640      2110701722                                          011500129751110
6312211721861321143637       0000000000         102506RBHUAHAAH  HXAARHBHPA   1011500129751112
798C05221172180068935      2110701722                                          011500129751112
82000000040044234436000000000000000000000000I046002284                         011500120000082
5200MA DUA          MASS UNEMPLOYMENT DDI046002284COR MA UI TAX2004072004091001011500120000083
6312211721861310608315       0000000000         100259PXAXHBP  APSXHPRP RPBR  1011500129751115
798C05221172180069755      2110701722                                          011500129751115
6312211721861328250846       0000000000         108223XRAPBAPSRHA X RUBPH     1011500129751117
798C05221172180074236      2110701722                                          011500129751117
82000000040044234436000000000000000000000000I046002284                         011500120000083
5200MA DUA          MASS UNEMPLOYMENT DDI046002284COR MA UI TAX2004072004091001011500120000084
6312211721863373680493       0000000000         109565BXAXR        H XPAH     1011500129751120
798C02221172180074557      21107017011401533                                   011500129751120
6312211721861333982663       0000000000         105270BUPB A BHAAXSP          1011500129751122
798C05221172180074855      2110701722                                          011500129751122
82000000040044234436000000000000000000000000I046002284                         011500120000084
5200MA DUA          MASS UNEMPLOYMENT DDI046002284COR MA UI TAX2004072004091001011500120000085
6312211721861325242567       0000000000         109044PPXRXHB S DXUHRXS       1011500129751125
798C05221172180075823      2110701722                                          011500129751125
6312211721861339372638       0000000000         110351XXHBHA B SXPDX          1011500129751127
798C05221172180081634      2110701722                                          011500129751127
82000000040044234436000000000000000000000000I046002284                         011500120000085
5200MA DUA          MASS UNEMPLOYMENT DDI046002284COR MA UI TAX2004072004091001011500120000086
6312211721861338594254       0000000000         113152SXBXXB  HHBPS           1011500129751130
798C05221172180083334      2110701722                                          011500129751130
6312211721861306737009       0000000000         110472BRXAPS  XUAAPS          1011500129751132
798C05221172180083883      2110701722                                          011500129751132
82000000040044234436000000000000000000000000I046002284                         011500120000086
5200MA DUA          MASS UNEMPLOYMENT DDI046002284COR MA UI TAX2004072004091001011500120000087
6312211721861333832599       0000000000         115386PXAARHD A BXSRPDBRP     1011500129751135
798C05221172180086755      2110701722                                          011500129751135
6312211721861336007041       0000000000         118228HPSHBBH B HAXXH         1011500129751137
798C05221172180088748      2110701722                                          011500129751137
82000000040044234436000000000000000000000000I046002284                         011500120000087
5200MA DUA          MASS UNEMPLOYMENT DDI046002284COR MA UI TAX2004072004091001011500120000088
6312211721861301034557       0000000000         125838BXUAX R BHUSH           1011500129751140
798C05221172180093552      2110701722                                          011500129751140
6312211721861338231585       0000000000         126562SAUXHSXH P SPBRXSPB     1011500129751142
798C05221172180098871      2110701722                                          011500129751142
82000000040044234436000000000000000000000000I046002284                         011500120000088
5200MA DUA          MASS UNEMPLOYMENT DDI046002284COR MA UI TAX2004072004091001011500120000089
6312211721861333923470       0000000000         136265HAPXS A APXRXAXB        1011500129751145
798C05221172180100159      2110701722                                          011500129751145
6312211721861335046434       0000000000         137327APHHP B BAXSBHB         1011500129751147
798C05221172180105634      2110701722                                          011500129751147
82000000040044234436000000000000000000000000I046002284                         011500120000089
5200MA DUA          MASS UNEMPLOYMENT DDI046002284COR MA UI TAX2004072004091001011500120000090
6312211721861400734123       0000000000         138714BXPXSARX  AHBAAHSP-AXP  1011500129751150
798C05221172180106002      2110701722                                          011500129751150
6312211721861333883347       0000000000         139859BXAXR X BRXUHRSHBBHA    1011500129751152
798C05221172180108931      2110701722                                          011500129751152
82000000040044234436000000000000000000000000I046002284                         011500120000090
5200MA DUA          MASS UNEMPLOYMENT DDI046002284COR MA UI TAX2004072004091001011500120000091
6312211721861334972238       0000000000         140904PPAXRHBB X PXXUHS       1011500129751155
798C05221172180109212      2110701722                                          011500129751155
6312211721861200242227       0000000000         142317PXAA X PHXHRHA          1011500129751157
798C05221172180111050      2110701722                                          011500129751157
82000000040044234436000000000000000000000000I046002284                         011500120000091
5200MA DUA          MASS UNEMPLOYMENT DDI046002284COR MA UI TAX2004072004091001011500120000092
6312211721861326000974       0000000000         146412AHHHXXX  B PXRXS        1011500129751160
798C05221172180112086      2110701722                                          011500129751160
6312211721861401801452       0000000000         143462XBHDXSXHA S PPAPS       1011500129751162
798C05221172180112706      2110701722                                          011500129751162
82000000040044234436000000000000000000000000I046002284                         011500120000092
5200MA DUA          MASS UNEMPLOYMENT DDI046002284COR MA UI TAX2004072004091001011500120000093
6312211721861401248117       0000000000         143513APRRXSA X HAPBXX        1011500129751165
798C05221172180114031      2110701722                                          011500129751165
6312211721861302147452       0000000000         142224XBPXPX  A XPXS          1011500129751167
798C05221172180115887      2110701722                                          011500129751167
82000000040044234436000000000000000000000000I046002284                         011500120000093
5200MA DUA          MASS UNEMPLOYMENT DDI046002284COR MA UI TAX2004072004091001011500120000094
6312211721861109699694       0000000000         148389BRXAAX B XHBBXAPXXX     1011500129751170
798C05221172180116445      2110701722                                          011500129751170
6312211721861320518114       0000000000         147499SXARXS S XBHPHSA        1011500129751172
798C05221172180118869      2110701722                                          011500129751172
82000000040044234436000000000000000000000000I046002284                         011500120000094
5200MA DUA          MASS UNEMPLOYMENT DDI046002284COR MA UI TAX2004072004091001011500120000095
6312211721861338159337       0000000000         148499SXXRXAA D RBXSPHXS      1011500129751175
798C05221172180119105      2110701722                                          011500129751175
6312211721861334221488       0000000000         156487APXSAP   SXSH           1011500129751177
798C05221172180122670      2110701722                                          011500129751177
82000000040044234436000000000000000000000000I046002284                         011500120000095
5200MA DUA          MASS UNEMPLOYMENT DDI046002284COR MA UI TAX2004072004091001011500120000096
6312211721861333753699       0000000000         156579DPBBPXP S SHBXPPSH      1011500129751180
798C05221172180125311      2110701722                                          011500129751180
6312211721861104367820       0000000000         159489BHXS H XXDXSXHR         1011500129751182
798C05221172180128562      2110701722                                          011500129751182
82000000040044234436000000000000000000000000I046002284                         011500120000096
5200MA DUA          MASS UNEMPLOYMENT DDI046002284COR MA UI TAX2004072004091001011500120000097
6312211721861329723969       0000000000         165997XXAPSX X XPBBXSAPB      1011500129751185
798C05221172180135751      2110701722                                          011500129751185
6312211721861339761685       0000000000         173515BHBUB H XAUS HPSHPAX    1011500129751187
798C05221172180138761      2110701722                                          011500129751187
82000000040044234436000000000000000000000000I046002284                         011500120000097
5200MA DUA          MASS UNEMPLOYMENT DDI046002284COR MA UI TAX2004072004091001011500120000098
6312211721861339249704       0000000000         168841BXAXR HHASXHHB  APPHAP  1011500129751190
798C05221172180138936      2110701722                                          011500129751190
6312211721861338003388       0000000000         168897RXAH S RHXBA            1011500129751192
798C05221172180138992      2110701722                                          011500129751192
82000000040044234436000000000000000000000000I046002284                         011500120000098
5200MA DUA          MASS UNEMPLOYMENT DDI046002284COR MA UI TAX2004072004091001011500120000099
6312211721861400724152       0000000000         179223BRXHBAS A RHAAHPAX      1011500129751195
798C05221172180144387      2110701722                                          011500129751195
6312211721861325468689       0000000000         175712BUBADHAAH APPB H APPB   1011500129751197
798C05221172180146233      2110701722                                          011500129751197
82000000040044234436000000000000000000000000I046002284                         011500120000099
5200MA DUA          MASS UNEMPLOYMENT DDI046002284COR MA UI TAX2004072004091001011500120000100
6312211721861338242242       0000000000         177064XXDPX B BXDXSHH         1011500129751200
798C05221172180146564      2110701722                                          011500129751200
6312211721861338245624       0000000000         178760BXPXSARX  PXSBPUA       1011500129751202
798C05221172180146984      2110701722                                          011500129751202
82000000040044234436000000000000000000000000I046002284                         011500120000100
5200MA DUA          MASS UNEMPLOYMENT DDI046002284COR MA UI TAX2004072004091001011500120000101
6312211721861401966729       0000000000         179101XDHAA B HBXSXRXAX       1011500129751205
798C05221172180147070      2110701722                                          011500129751205
6312211721861316111889       0000000000         180532SPXPBH P XPXRBHA        1011500129751207
798C05221172180148585      2110701722                                          011500129751207
82000000040044234436000000000000000000000000I046002284                         011500120000101
5200MA DUA          MASS UNEMPLOYMENT DDI046002284COR MA UI TAX2004072004091001011500120000102
6312211721861329923437       0000000000         182232AHHHXXX B XPXRAXSH      1011500129751210
798C05221172180149011      2110701722                                          011500129751210
6312211721861401217750       0000000000         182028BUBPP X RPHUHAPX        1011500129751212
798C05221172180151610      2110701722                                          011500129751212
82000000040044234436000000000000000000000000I046002284                         011500120000102
5200MA DUA          MASS UNEMPLOYMENT DDI046002284COR MA UI TAX2004072004091001011500120000103
6312211721861402439323       0000000000         180411AXXRHBBH  B HBXPB       1011500129751215
798C05221172180152458      2110701722                                          011500129751215
6312211721861326486311       0000000000         188325RX B PU                 1011500129751217
798C05221172180156038      2110701722                                          011500129751217
82000000040044234436000000000000000000000000I046002284                         011500120000103
5200MA DUA          MASS UNEMPLOYMENT DDI046002284COR MA UI TAX2004072004091001011500120000104
6312211721861339560892       0000000000         193022XXABPB X PHBPX XH BX X  1011500129751220
798C05221172180161072      2110701722                                          011500129751220
6312211721861334908866       0000000000         190686PXAPH H BAHSRHSB        1011500129751222
798C05221172180161804      2110701722                                          011500129751222
82000000040044234436000000000000000000000000I046002284                         011500120000104
5200MA DUA          MASS UNEMPLOYMENT DDI046002284COR MA UI TAX2004072004091001011500120000105
6312211721861323078484       0000000000         194798BPHBP  SRXSH            1011500129751225
798C05221172180162851      2110701722                                          011500129751225
6312211721861320560897       0000000000         200592BXSH P PPPSHA           1011500129751227
798C05221172180164468      2110701722                                          011500129751227
82000000040044234436000000000000000000000000I046002284                         011500120000105
5200MA DUA          MASS UNEMPLOYMENT DDI046002284COR MA UI TAX2004072004091001011500120000106
6312211721861325731363       0000000000         199257XSARPSA A XXBR          1011500129751230
798C05221172180169184      2110701722                                          011500129751230
6312211721861339661478       0000000000         199281BUBAPS X ARPASRPBB      1011500129751232
798C05221172180169208      2110701722                                          011500129751232
82000000040044234436000000000000000000000000I046002284                         011500120000106
5200MA DUA          MASS UNEMPLOYMENT DDI046002284COR MA UI TAX2004072004091001011500120000107
6312211721861333402004       0000000000         203186HPPBA R RXBB            1011500129751235
798C05221172180173025      2110701722                                          011500129751235
6312211721861304296269       0000000000         202586APHAS P BPBX            1011500129751237
798C05221172180174130      2110701722                                          011500129751237
82000000040044234436000000000000000000000000I046002284                         011500120000107
5200MA DUA          MASS UNEMPLOYMENT DDI046002284COR MA UI TAX2004072004091001011500120000108
6312211721861329882056       0000000000         209350RAXSXPX APPB  P APPB    1011500129751240
798C05221172180176030      2110701722                                          011500129751240
63122117218694284384         0000000000         209362HHAXBXP  PHXPSX         1011500129751242
798C02221172180176042      21107017011500120                                   011500129751242
82000000040044234436000000000000000000000000I046002284                         011500120000108
5200MA DUA          MASS UNEMPLOYMENT DDI046002284COR MA UI TAX2004072004091001011500120000109
6312211721861312511025       0000000000         221958RAXSXX  P XUAAXS        1011500129751245
798C05221172180189922      2110701722                                          011500129751245
6312211721861338155811       0000000000         223005XSX  X XXBXHAPS         1011500129751247
798C05221172180195322      2110701722                                          011500129751247
82000000040044234436000000000000000000000000I046002284                         011500120000109
5200MA DUA          MASS UNEMPLOYMENT DDI046002284COR MA UI TAX2004072004091001011500120000110
6312211721861400631782       0000000000         223006SRPHHH  BHP             1011500129751250
798C05221172180195323      2110701722                                          011500129751250
6312211721861326191796       0000000000         223013XSHHBX P HUAPHAAHS      1011500129751252
798C05221172180195330      2110701722                                          011500129751252
82000000040044234436000000000000000000000000I046002284                         011500120000110
5200MA DUA          MASS UNEMPLOYMENT DDI046002284COR MA UI TAX2004072004091001011500120000111
6312211721861401472122       0000000000         223018XXXBAXX P BPBDHAHHAH    1011500129751255
798C05221172180195335      2110701722                                          011500129751255
6312211721861328063841       0000000000         223035SPXPBH B SPDHA          1011500129751257
798C05221172180195352      2110701722                                          011500129751257
82000000040044234436000000000000000000000000I046002284                         011500120000111
5200MA DUA          MASS UNEMPLOYMENT DDI046002284PPD MA UI TAX2004072004081001122000030000112
6212211721861081903452       0000038700      180968994XBHDX P RPBB            1122000036692229
799R03221172180038345      12200066                                            122000036692229
82000000020022117218000000000000000000038700I046002284                         122000030000112
5200MA DUA          MASS UNEMPLOYMENT DDI046002284PPD MA UI TAX2004082004091001122000030000113
621221172186004661346293     0000000000   PREN11285596AHAAHBB B AXABPA        1122000036704051
799R03221172180019271      02600959                                            122000036704051
621221172186004623344453     0000000000   PREN11280217PPXRXHB S RHBBHA        1122000036704053
799R03221172180019440      02600959                                            122000036704053
621221172186004608022855     0000000000   PREN11284711SXAAPXR A BDHHSHA       1122000036704055
799R03221172180020210      02600959                                            122000036704055
621221172186000039366029     0000000000   PREN11281852BHBBPH  X RXSAXRXS      1122000036704057
799R03221172180021195      02600959                                            122000036704057
621221172186004616865732     0000000000   PREN11282385BPBH  X HPPHS           1122000036704059
799R03221172180021213      02600959                                            122000036704059
621221172186394006301147     0000000000   PREN11281352XBXUXPP A XHSAHPP XHBH  1122000036704061
799R03221172180022331      02600959                                            122000036704061
621221172186004668572866     0000000000   PREN11284373AHRAP  XHSHXX           1122000036704063
799R03221172180022333      02600959                                            122000036704063
621221172186011000138        0000000000   PREN11281308SPXRPBXB X XXASPSPAP    1122000036704065
799R03221172180023338      02600959                                            122000036704065
621221172186381048282596     0000000000   PREN11281791BPPRAUSH  SXAR          1122000036704067
799R03221172180023516      02600959                                            122000036704067
621221172186004665081486     0000000000   PREN11281888PXAPH R XSAPPSH         1122000036704069
799R03221172180023585      02600959                                            122000036704069
621221172186466005149607     0000000000   PREN11281797AHHHXXX R XXSPHBB       1122000036704071
799R03221172180023602      02600959                                            122000036704071
621221172186004666515294     0000000000   PREN11283587RXAPSX  APRRXSP         1122000036704073
799R03221172180024602      02600959                                            122000036704073
621221172186483028780563     0000000000   PREN11284271PBHX  AAAXRRPDBRA       1122000036704075
799R03221172180024990      02600959                                            122000036704075
621221172186004669859009     0000000000   PREN11284849PA XSR  XXSH            1122000036704077
799R03221172180025182      02600959                                            122000036704077
621221172186394005528468     0000000000   PREN11284948BUBPX H SXPBBRXB        1122000036704079
799R03221172180025426      02600959                                            122000036704079
621221172186004663124206     0000000000   PREN11285333BXPXSARX X SXPSP        1122000036704081
799R03221172180025644      02600959                                            122000036704081
621221172186483037062201     0000000000   PREN11286134DPXP APSH  BPS          1122000036704083
799R03221172180025879      02600959                                            122000036704083
621221172186004666099095     0000000000   PREN11286823XAPPBA B HHBXB          1122000036704085
799R03221172180026514      02600959                                            122000036704085
621221172186466005257641     0000000000   PREN11287005XBHH  BABPUSRXSR        1122000036704087
799R03221172180026526      02600959                                            122000036704087
621221172186004666953144     0000000000   PREN11288921XXDPX X XPSR            1122000036704089
799R03221172180027592      02600959                                            122000036704089
82000000400442344360000000000000000000000000I046002284                         122000030000113
5200MA DUA          MASS UNEMPLOYMENT DDI046002284PPD MA UI TAX2004082004091001122000030000114
621221172186000422465276     0000000000   PREN11280178PPXRXHBXSHPUB B RPP     1122000036704092
799R03221172180022700      12100035                                            122000036704092
621221172186325065764064     0000000000   PREN11281856XSARPSA H PAUAAXBXH     1122000036704094
799R03221172180023608      12100035                                            122000036704094
82000000040044234436000000000000000000000000I046002284                         122000030000114
5200MA DUA          MASS UNEMPLOYMENT DDI046002284COR MA UI TAX2004092004071001211383380000115
62122117218696829            0000000000          11757AABPS  BUSSHAHHAH       1211383380000982
798C02221172180014312      21138338211081216                                   211383380000982
82000000020022117218000000000000000000000000I046002284                         211383380000115
5200MA DUA          MASS UNEMPLOYMENT DDI046002284COR MA UI TAX2004092004071001211383380000116
62122117218698530            0000000000          20622BHSSPRHA  PUBBPS        1211383380000983
798C02221172180018145      21138338211081216                                   211383380000983
82000000020022117218000000000000000000000000I046002284                         211383380000116
5200MA DUA          MASS UNEMPLOYMENT DDI046002284COR MA UI TAX2004092004071001211383380000117
6212211721860120319          0000000000          20638BAHSRHS X SPRH          1211383380000984
798C02221172180018161      21138338211081216                                   211383380000984
82000000020022117218000000000000000000000000I046002284                         211383380000117
5200MA DUA          MASS UNEMPLOYMENT DDI046002284COR MA UI TAX2004092004071001211489220000118
62122117218628031875         0000000000          20632AAHSA H BUPS            1211489220000985
798C02221172180018155      21148922211489656                                   211489220000985
82000000020022117218000000000000000000000000I046002284                         211489220000118
5200MA DUA          MASS UNEMPLOYMENT DDI046002284COR MA UI TAX2004092004071001011104350000119
6212211721861862289          0000000000          20596XXAPBAS X XXXPB         1011104350000986
798C02221172180018119      01110435211170282                                   011104350000986
82000000020022117218000000000000000000000000I046002284                         011104350000119
5200MA DUA          MASS UNEMPLOYMENT DDI046002284COR MA UI TAX2004092004071001211370690000120
62122117218647043097         0000000000           7087PXAX X HAHHPAPP         1211370690000987
798C02221172180007513      21137069211371298                                   211370690000987
82000000020022117218000000000000000000000000I046002284                         211370690000120
5200MA DUA          MASS UNEMPLOYMENT DDI046002284COR MA UI TAX2004092004071001211374060000121
621221172186415465           0000000000          20630XXARA A XPDHS           1211374060000988
798C02221172180018153      21137406211371298                                   211374060000988
82000000020022117218000000000000000000000000I046002284                         211374060000121
5200MA DUA          MASS UNEMPLOYMENT DDI046002284COR MA UI TAX2004092004071001211385510000122
62122117218601730037122      0000000000          20293XPUAASHA S HPUBXA       1211385510000989
798C02221172180018068      21138551211384117                                   211385510000989
82000000020022117218000000000000000000000000I046002284                         211385510000122
5200MA DUA          MASS UNEMPLOYMENT DDI046002284COR MA UI TAX2004092004071001211371060000123
62122117218623943305         0000000000          20606SXAAPXPX  X RPBHA       1211371060000990
798C02221172180018129      21137106211871015                                   211371060000990
82000000020022117218000000000000000000000000I046002284                         211371060000123
5200MA DUA          MASS UNEMPLOYMENT DDI046002284COR MA UI TAX2004072004091001011306970000124
62122117218627022318         0000000000          46797XXSPHB R HHXAAPS        1011306970000991
798C02221172180009410      01130697011304478                                   011306970000991
82000000020022117218000000000000000000000000I046002284                         011306970000124
5200MA DUA          MASS UNEMPLOYMENT DDI046002284COR MA UI TAX2004072004091001011306970000125
62122117218617011750         0000000000          75426RPPHHAB B P'PXBBHA      1011306970000992
798C02221172180044502      01130697011304478                                   011306970000992
82000000020022117218000000000000000000000000I046002284                         011306970000125
5200MA DUA          MASS UNEMPLOYMENT DDI046002284COR MA UI TAX2004072004091001211371050000126
6212211721861916027103       0000000000          76443HAHSXXS  HUASB AXRRP    1211371050000993
798C02221172180044746      21137105011304478                                   211371050000993
82000000020022117218000000000000000000000000I046002284                         211371050000126
5200MA DUA          MASS UNEMPLOYMENT DDI046002284COR MA UI TAX2004072004091001211371050000127
62122117218625702951         0000000000         106126APXRXAX  ARPHPXHXU      1211371050000994
798C02221172180077668      21137105011304478                                   211371050000994
82000000020022117218000000000000000000000000I046002284                         211371050000127
5200MA DUA          MASS UNEMPLOYMENT DDI046002284COR MA UI TAX2004072004091001211372770000128
62122117218623438882         0000000000          59768BUBXS B AHPXA           1211372770000995
798C02221172180016397      21137277011304478                                   211372770000995
82000000020022117218000000000000000000000000I046002284                         211372770000128
5200MA DUA          MASS UNEMPLOYMENT DDI046002284COR MA UI TAX2004072004091001211372770000129
621221172186310718046        0000000000          87362BHXR  RUASA             1211372770000996
798C02221172180056863      21137277011304478                                   211372770000996
82000000020022117218000000000000000000000000I046002284                         211372770000129
5200MA DUA          MASS UNEMPLOYMENT DDI046002284COR MA UI TAX2004072004091001211372770000130
621221172186310720257        0000000000         144238RXSSXR B XHDHAPD        1211372770000997
798C02221172180114247      21137277011304478                                   211372770000997
82000000020022117218000000000000000000000000I046002284                         211372770000130
5200MA DUA          MASS UNEMPLOYMENT DDI046002284COR MA UI TAX2004072004091001211372770000131
62122117218623455193         0000000000         191898AXABPA A DPSHA          1211372770000998
798C02221172180159438      21137277011304478                                   211372770000998
82000000020022117218000000000000000000000000I046002284                         211372770000131
5200MA DUA          MASS UNEMPLOYMENT DDI046002284COR MA UI TAX2004072004091001211383380000132
621221172186128720           0000000000         110192BPSHXX R HUBHSB         1211383380000999
798C02221172180078925      21138338211081216                                   211383380000999
82000000020022117218000000000000000000000000I046002284                         211383380000132
5200MA DUA          MASS UNEMPLOYMENT DDI046002284COR MA UI TAX2004072004091001211383380000133
6212211721860098139          0000000000         153679XXSPHBBH  RHHRH         1211383380001000
798C02221172180126830      21138338211081216                                   211383380001000
82000000020022117218000000000000000000000000I046002284                         211383380000133
5200MA DUA          MASS UNEMPLOYMENT DDI046002284COR MA UI TAX2004072004091001211383380000134
621221172186101339           0000000000         158730BXSH  P ADPPHBA         1211383380001001
798C02221172180127037      21138338211081216                                   211383380001001
82000000020022117218000000000000000000000000I046002284                         211383380000134
5200MA DUA          MASS UNEMPLOYMENT DDI046002284COR MA UI TAX2004072004091001211383380000135
62122117218632148            0000000000         161239BPSXX  AUHPSP           1211383380001002
798C02221172180129037      21138338211081216                                   211383380001002
82000000020022117218000000000000000000000000I046002284                         211383380000135
5200MA DUA          MASS UNEMPLOYMENT DDI046002284COR MA UI TAX2004072004091001211383380000136
62122117218696829            0000000000         173178BAXXHA B BUSSHAHHAH     1211383380001003
798C02221172180138681      21138338211081216                                   211383380001003
82000000020022117218000000000000000000000000I046002284                         211383380000136
5200MA DUA          MASS UNEMPLOYMENT DDI046002284COR MA UI TAX2004072004091001211383380000137
621221172186101299           0000000000         178416RXABX X RAXSRBPS        1211383380001004
798C02221172180146895      21138338211081216                                   211383380001004
82000000020022117218000000000000000000000000I046002284                         211383380000137
5200MA DUA          MASS UNEMPLOYMENT DDI046002284COR MA UI TAX2004072004091001211383380000138
6212211721860150760          0000000000         203509HBPSXHHAR B HHXXR RXXR  1211383380001005
798C02221172180173094      21138338211081216                                   211383380001005
82000000020022117218000000000000000000000000I046002284                         211383380000138
5200MA DUA          MASS UNEMPLOYMENT DDI046002284COR MA UI TAX2004072004091001211489220000139
62122117218644103321         0000000000          42373PPXRXHB  SPXRPBB        1211489220001006
798C02221172180000320      21148922211489656                                   211489220001006
82000000020022117218000000000000000000000000I046002284                         211489220000139
5200MA DUA          MASS UNEMPLOYMENT DDI046002284COR MA UI TAX2004072004091001211489220000140
62122117218626908858         0000000000          37432BAHDHS H HPBXHS         1211489220001007
798C02221172180026662      21148922211489656                                   211489220001007
82000000020022117218000000000000000000000000I046002284                         211489220000140
5200MA DUA          MASS UNEMPLOYMENT DDI046002284COR MA UI TAX2004072004091001211489220000141
62122117218641532158         0000000000          79140RXABX X RHBBHA          1211489220001008
798C02221172180049673      21148922211489656                                   211489220001008
82000000020022117218000000000000000000000000I046002284                         211489220000141
5200MA DUA          MASS UNEMPLOYMENT DDI046002284COR MA UI TAX2004072004091001211489220000142
62122117218628766230         0000000000          89969RXARAAS A PPXRXUX       1211489220001009
798C02221172180060492      21148922211489656                                   211489220001009
82000000020022117218000000000000000000000000I046002284                         211489220000142
5200MA DUA          MASS UNEMPLOYMENT DDI046002284COR MA UI TAX2004072004091001211489220000143
62122117218628739574         0000000000         136704PPX X PXHDPA            1211489220001010
798C02221172180106797      21148922211489656                                   211489220001010
82000000020022117218000000000000000000000000I046002284                         211489220000143
5200MA DUA          MASS UNEMPLOYMENT DDI046002284COR MA UI TAX2004072004091001211489220000144
62122117218640979719         0000000000         145346BUBAPS X XXPUHAAH       1211489220001011
798C02221172180115525      21148922211489656                                   211489220001011
82000000020022117218000000000000000000000000I046002284                         211489220000144
5200MA DUA          MASS UNEMPLOYMENT DDI046002284COR MA UI TAX2004072004091001211489220000145
6212211721862000004734841    0000000000         148810XBBPBPS B PXXXSS        1211489220001012
798C02221172180117888      21148922211489656                                   211489220001012
82000000020022117218000000000000000000000000I046002284                         211489220000145
5200MA DUA          MASS UNEMPLOYMENT DDI046002284COR MA UI TAX2004072004091001211489220000146
6212211721862833704509       0000000000         155113XSXAHD B BHPAHA         1211489220001013
798C02221172180122316      21148922211489656                                   211489220001013
82000000020022117218000000000000000000000000I046002284                         211489220000146
5200MA DUA          MASS UNEMPLOYMENT DDI046002284COR MA UI TAX2004072004091001211489220000147
6212211721864502868209       0000000000         160667XHBPSX P QUPSAP         1211489220001014
798C02221172180131442      21148922211489656                                   211489220001014
82000000020022117218000000000000000000000000I046002284                         211489220000147
5200MA DUA          MASS UNEMPLOYMENT DDI046002284COR MA UI TAX2004072004091001211489220000148
6212211721863765667109       0000000000         176686SPXPBH  HABHA           1211489220001015
798C02221172180146441      21148922211489656                                   211489220001015
82000000020022117218000000000000000000000000I046002284                         211489220000148
5200MA DUA          MASS UNEMPLOYMENT DDI046002284COR MA UI TAX2004072004091001211489220000149
6212211721862826078709       0000000000         189079BHSSPRHA P BXHUH        1211489220001016
798C02221172180157556      21148922211489656                                   211489220001016
82000000020022117218000000000000000000000000I046002284                         211489220000149
5200MA DUA          MASS UNEMPLOYMENT DDI046002284COR MA UI TAX2004072004091001211489690000150
6212211721862880603909       0000000000         156438SPRPBXB B SXAHSA        1211489690001017
798C02221172180122621      21148969211489656                                   211489690001017
82000000020022117218000000000000000000000000I046002284                         211489690000150
5200MA DUA          MASS UNEMPLOYMENT DDI046002284COR MA UI TAX2004072004091001211370690000151
62122117218646685139         0000000000          55050XRHAAB X AAXS           1211370690001018
798C02221172180012502      21137069211371298                                   211370690001018
82000000020022117218000000000000000000000000I046002284                         211370690000151
5200MA DUA          MASS UNEMPLOYMENT DDI046002284COR MA UI TAX2004072004091001211370690000152
6212211721861424206272       0000000000          53801BHXSHAA H XPPHXU        1211370690001019
798C02221172180013468      21137069211371298                                   211370690001019
82000000020022117218000000000000000000000000I046002284                         211370690000152
5200MA DUA          MASS UNEMPLOYMENT DDI046002284COR MA UI TAX2004072004091001211370690000153
62122117218602424216412      0000000000          63626BPBX  BHHBXSX           1211370690001020
798C02221172180033473      21137069211371298                                   211370690001020
82000000020022117218000000000000000000000000I046002284                         211370690000153
5200MA DUA          MASS UNEMPLOYMENT DDI046002284COR MA UI TAX2004072004091001211370690000154
62122117218602424216412      0000000000          63627BPBX  BHHBXSX           1211370690001021
798C02221172180033474      21137069211371298                                   211370690001021
82000000020022117218000000000000000000000000I046002284                         211370690000154
5200MA DUA          MASS UNEMPLOYMENT DDI046002284COR MA UI TAX2004072004091001211370690000155
62122117218646780830         0000000000          86532PXAARHD X HHSAPBH       1211370690001022
798C02221172180054071      21137069211371298                                   211370690001022
82000000020022117218000000000000000000000000I046002284                         211370690000155
5200MA DUA          MASS UNEMPLOYMENT DDI046002284COR MA UI TAX2004072004091001211370690000156
62122117218602424203279      0000000000          96232HBPBH X XPXXPA          1211370690001023
798C02221172180064542      21137069211371298                                   211370690001023
82000000020022117218000000000000000000000000I046002284                         211370690000156
5200MA DUA          MASS UNEMPLOYMENT DDI046002284COR MA UI TAX2004072004091001211370690000157
62122117218601424204905      0000000000          95682BPAXH X APSSP           1211370690001024
798C02221172180065777      21137069211371298                                   211370690001024
82000000020022117218000000000000000000000000I046002284                         211370690000157
5200MA DUA          MASS UNEMPLOYMENT DDI046002284COR MA UI TAX2004072004091001211370690000158
62122117218647019494         0000000000         107487RXARBHHS X BAHDXAA      1211370690001025
798C02221172180078006      21137069211371298                                   211370690001025
82000000020022117218000000000000000000000000I046002284                         211370690000158
5200MA DUA          MASS UNEMPLOYMENT DDI046002284COR MA UI TAX2004072004091001211370690000159
62122117218647056371         0000000000         121721BXPHH X AXPA            1211370690001026
798C02221172180092500      21137069211371298                                   211370690001026
82000000020022117218000000000000000000000000I046002284                         211370690000159
5200MA DUA          MASS UNEMPLOYMENT DDI046002284COR MA UI TAX2004072004091001211370690000160
62122117218647078789         0000000000         122128AHHHXXX B RHAAPXR       1211370690001027
798C02221172180092652      21137069211371298                                   211370690001027
82000000020022117218000000000000000000000000I046002284                         211370690000160
5200MA DUA          MASS UNEMPLOYMENT DDI046002284COR MA UI TAX2004072004091001211370690000161
62122117218646915685         0000000000         143817XPSSX  P HXAAPS         1211370690001028
798C02221172180112807      21137069211371298                                   211370690001028
82000000020022117218000000000000000000000000I046002284                         211370690000161
5200MA DUA          MASS UNEMPLOYMENT DDI046002284COR MA UI TAX2004072004091001211370690000162
62122117218647035391         0000000000         142618BPBHSR P BHXBXPA        1211370690001029
798C02221172180116026      21137069211371298                                   211370690001029
82000000020022117218000000000000000000000000I046002284                         211370690000162
5200MA DUA          MASS UNEMPLOYMENT DDI046002284COR MA UI TAX2004072004091001211370690000163
6212211721862404068243       0000000000         150226APHPSBHH  P ARPPXB      1211370690001030
798C02221172180119559      21137069211371298                                   211370690001030
82000000020022117218000000000000000000000000I046002284                         211370690000163
5200MA DUA          MASS UNEMPLOYMENT DDI046002284COR MA UI TAX2004072004091001211370690000164
62122117218647100087         0000000000         149338XAABAXB P QUXAPHAP      1211370690001031
798C02221172180120623      21137069211371298                                   211370690001031
82000000020022117218000000000000000000000000I046002284                         211370690000164
5200MA DUA          MASS UNEMPLOYMENT DDI046002284COR MA UI TAX2004072004091001211370690000165
62122117218647073135         0000000000         179386XXPABPS A XPHPAPBXPP    1211370690001032
798C02221172180147098      21137069211371298                                   211370690001032
82000000020022117218000000000000000000000000I046002284                         211370690000165
5200MA DUA          MASS UNEMPLOYMENT DDI046002284COR MA UI TAX2004072004091001211370690000166
62122117218646923381         0000000000         184075SPHAAPSX X BAXSBHB      1211370690001033
798C02221172180152129      21137069211371298                                   211370690001033
82000000020022117218000000000000000000000000I046002284                         211370690000166
5200MA DUA          MASS UNEMPLOYMENT DDI046002284COR MA UI TAX2004072004091001211370690000167
62122117218646973211         0000000000         187715XBRBHA A RXAHPBPS       1211370690001034
798C02221172180157213      21137069211371298                                   211370690001034
82000000020022117218000000000000000000000000I046002284                         211370690000167
5200MA DUA          MASS UNEMPLOYMENT DDI046002284COR MA UI TAX2004072004091001211370690000168
62122117218646729565         0000000000         206217APHHA D SXAPHSA         1211370690001035
798C02221172180179387      21137069211371298                                   211370690001035
82000000020022117218000000000000000000000000I046002284                         211370690000168
5200MA DUA          MASS UNEMPLOYMENT DDI046002284COR MA UI TAX2004072004091001211374060000169
621221172186282476           0000000000         227185RPABAPH  A BPPAXSHDBRP  1211374060001036
798C02221172180192457      21137406211371298                                   211374060001036
82000000020022117218000000000000000000000000I046002284                         211374060000169
5200MA DUA          MASS UNEMPLOYMENT DDI046002284COR MA UI TAX2004072004091001211374060000170
621221172186105058           0000000000         223030XHHPAXR R PXPSSPA       1211374060001037
798C02221172180195347      21137406211371298                                   211374060001037
82000000020022117218000000000000000000000000I046002284                         211374060000170
5200MA DUA          MASS UNEMPLOYMENT DDI046002284COR MA UI TAX2004072004091001211385510000171
62122117218601730025127      0000000000         163336PXAA A AUAXPAAH         1211385510001038
798C02221172180136498      21138551211384117                                   211385510001038
82000000020022117218000000000000000000000000I046002284                         211385510000171
5200MA DUA          MASS UNEMPLOYMENT DDI046002284COR MA UI TAX2004072004091001211371060000172
62122117218625016715         0000000000          54206ARPPXB B PUASRA         1211371060001039
798C02221172180014774      21137106211871015                                   211371060001039
82000000020022117218000000000000000000000000I046002284                         211371060000172
5200MA DUA          MASS UNEMPLOYMENT DDI046002284COR MA UI TAX2004072004091001211371060000173
62122117218625007130         0000000000          35586BPSXX X XDPHRA          1211371060001040
798C02221172180024817      21137106211871015                                   211371060001040
82000000020022117218000000000000000000000000I046002284                         211371060000173
5200MA DUA          MASS UNEMPLOYMENT DDI046002284COR MA UI TAX2004072004091001211371060000174
62122117218625028550         0000000000          89928SXAAPXR S SXBPPHAP      1211371060001041
798C02221172180060451      21137106211871015                                   211371060001041
82000000020022117218000000000000000000000000I046002284                         211371060000174
5200MA DUA          MASS UNEMPLOYMENT DDI046002284COR MA UI TAX2004072004091001211371060000175
62122117218623194704         0000000000         128361BHRRAHA  A XAPBAAPSH    1211371060001042
798C02221172180096670      21137106211871015                                   211371060001042
82000000020022117218000000000000000000000000I046002284                         211371060000175
5200MA DUA          MASS UNEMPLOYMENT DDI046002284COR MA UI TAX2004072004091001211371060000176
62122117218625053273         0000000000         133908BXSXAX P HPBPPAH        1211371060001043
798C02221172180104595      21137106211871015                                   211371060001043
82000000020022117218000000000000000000000000I046002284                         211371060000176
5200MA DUA          MASS UNEMPLOYMENT DDI046002284COR MA UI TAX2004072004091001211371060000177
6212211721861950190214       0000000000         173171APHHAA X RPBRHA BA      1211371060001044
798C02221172180138674      21137106211871015                                   211371060001044
82000000020022117218000000000000000000000000I046002284                         211371060000177
5200MA DUA          MASS UNEMPLOYMENT DDI046002284COR MA UI TAX2004072004091001211489220000178
63122117218641873489         0000000000         135170BXPHB H BDHSXAAPS       1211489220001045
798C02221172180103901      21148922211489656                                   211489220001045
82000000020022117218000000000000000000000000I046002284                         211489220000178
5200MA DUA          MASS UNEMPLOYMENT DDI046002284COR MA UI TAX2004072004091001211489220000179
63122117218628500014         0000000000         161434XXSPHB B DRPAHRPUBH     1211489220001046
798C02221172180127701      21148922211489656                                   211489220001046
82000000020022117218000000000000000000000000I046002284                         211489220000179
5200MA DUA          MASS UNEMPLOYMENT DDI046002284COR MA UI TAX2004092004071001011001960000180
62122117218660791080         0000000000           9815QUQPS  RUXSH            1011001960001362
798C02221172180009474      01100196122203950                                   011001960001362
82000000020022117218000000000000000000000000I046002284                         011001960000180
5200MA DUA          MASS UNEMPLOYMENT DDI046002284COR MA UI TAX2004092004071001011001960000181
62122117218660794852         0000000000          19566XXBPXSH  AXS            1011001960001363
798C02221172180017841      01100196122203950                                   011001960001363
82000000020022117218000000000000000000000000I046002284                         011001960000181
5200MA DUA          MASS UNEMPLOYMENT DDI046002284COR MA UI TAX2004092004071001011001960000182
62122117218661740097         0000000000          20306DXP PXS  BHUSH          1011001960001364
798C02221172180018081      01100196122203950                                   011001960001364
82000000020022117218000000000000000000000000I046002284                         011001960000182
5200MA DUA          MASS UNEMPLOYMENT DDI046002284COR MA UI TAX2004092004071001011001960000183
62122117218660774991         0000000000          20583BP  Q XRHS              1011001960001365
798C02221172180018106      01100196122203950                                   011001960001365
82000000020022117218000000000000000000000000I046002284                         011001960000183
5200MA DUA          MASS UNEMPLOYMENT DDI046002284COR MA UI TAX2004092004071001011001960000184
62122117218660774991         0000000000          20585XRUSRPSH  DU            1011001960001366
798C02221172180018108      01100196122203950                                   011001960001366
82000000020022117218000000000000000000000000I046002284                         011001960000184
5200MA DUA          MASS UNEMPLOYMENT DDI046002284COR MA UI TAX2004092004071001011001960000185
62122117218660775017         0000000000          20623DURXSH  PHP             1011001960001367
798C02221172180018146      01100196122203950                                   011001960001367
82000000020022117218000000000000000000000000I046002284                         011001960000185
5200MA DUA          MASS UNEMPLOYMENT DDI046002284COR MA UI TAX2004092004071001011001960000186
62122117218660763370         0000000000          20647AXSDPU  XRHS            1011001960001368
798C02221172180018170      01100196122203950                                   011001960001368
82000000020022117218000000000000000000000000I046002284                         011001960000186
5200MA DUA          MASS UNEMPLOYMENT DDI046002284COR MA UI TAX2004092004071001011001960000187
62122117218660795492         0000000000          20648SPRHSH   PHP            1011001960001369
798C02221172180018171      01100196122203950                                   011001960001369
82000000020022117218000000000000000000000000I046002284                         011001960000187
5200MA DUA          MASS UNEMPLOYMENT DDI046002284COR MA UI TAX2004092004071001011001960000188
62122117218660771780         0000000000          20649SRPRUX  RU              1011001960001370
798C02221172180018172      01100196122203950                                   011001960001370
82000000020022117218000000000000000000000000I046002284                         011001960000188
5200MA DUA          MASS UNEMPLOYMENT DDI046002284COR MA UI TAX2004072004091001011001960000189
62122117218660771020         0000000000          42540RXP SRP  SRXSH          1011001960001372
798C02221172180002940      01100196122203950                                   011001960001372
82000000020022117218000000000000000000000000I046002284                         011001960000189
5200MA DUA          MASS UNEMPLOYMENT DDI046002284COR MA UI TAX2004072004091001011001960000190
62122117218660757906         0000000000          41580BUXS  SHSH              1011001960001373
798C02221172180003865      01100196122203950                                   011001960001373
82000000020022117218000000000000000000000000I046002284                         011001960000190
5200MA DUA          MASS UNEMPLOYMENT DDI046002284COR MA UI TAX2004072004091001011001960000191
62122117218660774770         0000000000          42279XUPBUXS  PHP            1011001960001374
798C02221172180004072      01100196122203950                                   011001960001374
82000000020022117218000000000000000000000000I046002284                         011001960000191
